{
  "_format": "hh-sol-artifact-1",
  "contractName": "IoTDeviceManager",
  "sourceName": "contracts/IoTDeviceManager.sol",
  "abi": [
    {
      "anonymous": false,
      "inputs": [
        {
          "indexed": true,
          "internalType": "address",
          "name": "deviceAddress",
          "type": "address"
        },
        {
          "indexed": false,
          "internalType": "uint256",
          "name": "timestamp",
          "type": "uint256"
        },
        {
          "indexed": false,
          "internalType": "bool",
          "name": "success",
          "type": "bool"
        }
      ],
      "name": "AuthenticationRecorded",
      "type": "event"
    },
    {
      "anonymous": false,
      "inputs": [
        {
          "indexed": true,
          "internalType": "address",
          "name": "deviceAddress",
          "type": "address"
        },
        {
          "indexed": false,
          "internalType": "uint256",
          "name": "timestamp",
          "type": "uint256"
        }
      ],
      "name": "DeviceAuthenticated",
      "type": "event"
    },
    {
      "anonymous": false,
      "inputs": [
        {
          "indexed": true,
          "internalType": "address",
          "name": "deviceAddress",
          "type": "address"
        }
      ],
      "name": "DeviceDeactivated",
      "type": "event"
    },
    {
      "anonymous": false,
      "inputs": [
        {
          "indexed": true,
          "internalType": "address",
          "name": "deviceAddress",
          "type": "address"
        },
        {
          "indexed": false,
          "internalType": "string",
          "name": "publicKey",
          "type": "string"
        }
      ],
      "name": "DeviceRegistered",
      "type": "event"
    },
    {
      "anonymous": false,
      "inputs": [
        {
          "indexed": true,
          "internalType": "address",
          "name": "deviceAddress",
          "type": "address"
        },
        {
          "indexed": false,
          "internalType": "string",
          "name": "deviceId",
          "type": "string"
        },
        {
          "indexed": false,
          "internalType": "uint256",
          "name": "sequence",
          "type": "uint256"
        },
        {
          "indexed": false,
          "internalType": "uint256",
          "name": "timestamp",
          "type": "uint256"
        },
        {
          "indexed": false,
          "internalType": "uint256",
          "name": "blockNumber",
          "type": "uint256"
        }
      ],
      "name": "TransactionRecorded",
      "type": "event"
    },
    {
      "inputs": [
        {
          "internalType": "address",
          "name": "deviceAddress",
          "type": "address"
        }
      ],
      "name": "activateDevice",
      "outputs": [],
      "stateMutability": "nonpayable",
      "type": "function"
    },
    {
      "inputs": [],
      "name": "activeDevicesCount",
      "outputs": [
        {
          "internalType": "uint256",
          "name": "",
          "type": "uint256"
        }
      ],
      "stateMutability": "view",
      "type": "function"
    },
    {
      "inputs": [
        {
          "internalType": "address",
          "name": "",
          "type": "address"
        }
      ],
      "name": "authCount",
      "outputs": [
        {
          "internalType": "uint256",
          "name": "",
          "type": "uint256"
        }
      ],
      "stateMutability": "view",
      "type": "function"
    },
    {
      "inputs": [
        {
          "internalType": "address",
          "name": "",
          "type": "address"
        },
        {
          "internalType": "uint256",
          "name": "",
          "type": "uint256"
        }
      ],
      "name": "authHistory",
      "outputs": [
        {
          "internalType": "uint256",
          "name": "timestamp",
          "type": "uint256"
        },
        {
          "internalType": "bool",
          "name": "success",
          "type": "bool"
        },
        {
          "internalType": "bytes32",
          "name": "proofHash",
          "type": "bytes32"
        }
      ],
      "stateMutability": "view",
      "type": "function"
    },
    {
      "inputs": [
        {
          "internalType": "address",
          "name": "deviceAddress",
          "type": "address"
        },
        {
          "internalType": "bytes32",
          "name": "messageHash",
          "type": "bytes32"
        },
        {
          "internalType": "bytes",
          "name": "signature",
          "type": "bytes"
        }
      ],
      "name": "authenticateDevice",
      "outputs": [
        {
          "internalType": "bool",
          "name": "",
          "type": "bool"
        }
      ],
      "stateMutability": "nonpayable",
      "type": "function"
    },
    {
      "inputs": [
        {
          "internalType": "address",
          "name": "deviceAddress",
          "type": "address"
        }
      ],
      "name": "deactivateDevice",
      "outputs": [],
      "stateMutability": "nonpayable",
      "type": "function"
    },
    {
      "inputs": [
        {
          "internalType": "uint256",
          "name": "",
          "type": "uint256"
        }
      ],
      "name": "deviceList",
      "outputs": [
        {
          "internalType": "address",
          "name": "",
          "type": "address"
        }
      ],
      "stateMutability": "view",
      "type": "function"
    },
    {
      "inputs": [
        {
          "internalType": "string",
          "name": "",
          "type": "string"
        },
        {
          "internalType": "uint256",
          "name": "",
          "type": "uint256"
        }
      ],
      "name": "deviceTransactions",
      "outputs": [
        {
          "internalType": "string",
          "name": "deviceId",
          "type": "string"
        },
        {
          "internalType": "bytes",
          "name": "data",
          "type": "bytes"
        },
        {
          "internalType": "string",
          "name": "messageHash",
          "type": "string"
        },
        {
          "internalType": "uint256",
          "name": "sequence",
          "type": "uint256"
        },
        {
          "internalType": "uint256",
          "name": "timestamp",
          "type": "uint256"
        },
        {
          "internalType": "address",
          "name": "deviceAddress",
          "type": "address"
        }
      ],
      "stateMutability": "view",
      "type": "function"
    },
    {
      "inputs": [
        {
          "internalType": "address",
          "name": "",
          "type": "address"
        }
      ],
      "name": "devices",
      "outputs": [
        {
          "internalType": "string",
          "name": "publicKey",
          "type": "string"
        },
        {
          "internalType": "string",
          "name": "metadata",
          "type": "string"
        },
        {
          "internalType": "uint256",
          "name": "lastSeen",
          "type": "uint256"
        },
        {
          "internalType": "bool",
          "name": "isActive",
          "type": "bool"
        },
        {
          "internalType": "address",
          "name": "owner",
          "type": "address"
        }
      ],
      "stateMutability": "view",
      "type": "function"
    },
    {
      "inputs": [],
      "name": "getAllDevices",
      "outputs": [
        {
          "internalType": "address[]",
          "name": "",
          "type": "address[]"
        }
      ],
      "stateMutability": "view",
      "type": "function"
    },
    {
      "inputs": [
        {
          "internalType": "address",
          "name": "deviceAddress",
          "type": "address"
        }
      ],
      "name": "getAuthHistory",
      "outputs": [
        {
          "components": [
            {
              "internalType": "uint256",
              "name": "timestamp",
              "type": "uint256"
            },
            {
              "internalType": "bool",
              "name": "success",
              "type": "bool"
            },
            {
              "internalType": "bytes32",
              "name": "proofHash",
              "type": "bytes32"
            }
          ],
          "internalType": "struct IoTDeviceManager.AuthRecord[]",
          "name": "",
          "type": "tuple[]"
        }
      ],
      "stateMutability": "view",
      "type": "function"
    },
    {
      "inputs": [
        {
          "internalType": "address",
          "name": "deviceAddress",
          "type": "address"
        }
      ],
      "name": "getAuthHistorySize",
      "outputs": [
        {
          "internalType": "uint256",
          "name": "",
          "type": "uint256"
        }
      ],
      "stateMutability": "view",
      "type": "function"
    },
    {
      "inputs": [
        {
          "internalType": "address",
          "name": "deviceAddress",
          "type": "address"
        }
      ],
      "name": "getDeviceAuthCount",
      "outputs": [
        {
          "internalType": "uint256",
          "name": "",
          "type": "uint256"
        }
      ],
      "stateMutability": "view",
      "type": "function"
    },
    {
      "inputs": [
        {
          "internalType": "address",
          "name": "deviceAddress",
          "type": "address"
        }
      ],
      "name": "getDeviceInfo",
      "outputs": [
        {
          "internalType": "string",
          "name": "",
          "type": "string"
        },
        {
          "internalType": "string",
          "name": "",
          "type": "string"
        },
        {
          "internalType": "bool",
          "name": "",
          "type": "bool"
        },
        {
          "internalType": "uint256",
          "name": "",
          "type": "uint256"
        }
      ],
      "stateMutability": "view",
      "type": "function"
    },
    {
      "inputs": [
        {
          "internalType": "string",
          "name": "deviceId",
          "type": "string"
        },
        {
          "internalType": "uint256",
          "name": "start",
          "type": "uint256"
        },
        {
          "internalType": "uint256",
          "name": "limit",
          "type": "uint256"
        }
      ],
      "name": "getDeviceTransactions",
      "outputs": [
        {
          "components": [
            {
              "internalType": "string",
              "name": "deviceId",
              "type": "string"
            },
            {
              "internalType": "bytes",
              "name": "data",
              "type": "bytes"
            },
            {
              "internalType": "string",
              "name": "messageHash",
              "type": "string"
            },
            {
              "internalType": "uint256",
              "name": "sequence",
              "type": "uint256"
            },
            {
              "internalType": "uint256",
              "name": "timestamp",
              "type": "uint256"
            },
            {
              "internalType": "address",
              "name": "deviceAddress",
              "type": "address"
            }
          ],
          "internalType": "struct IoTDeviceManager.Transaction[]",
          "name": "",
          "type": "tuple[]"
        }
      ],
      "stateMutability": "view",
      "type": "function"
    },
    {
      "inputs": [],
      "name": "getDevicesCount",
      "outputs": [
        {
          "internalType": "uint256",
          "name": "",
          "type": "uint256"
        }
      ],
      "stateMutability": "view",
      "type": "function"
    },
    {
      "inputs": [
        {
          "internalType": "uint256",
          "name": "start",
          "type": "uint256"
        },
        {
          "internalType": "uint256",
          "name": "limit",
          "type": "uint256"
        }
      ],
      "name": "getDevicesPaginated",
      "outputs": [
        {
          "internalType": "address[]",
          "name": "",
          "type": "address[]"
        }
      ],
      "stateMutability": "view",
      "type": "function"
    },
    {
      "inputs": [],
      "name": "getGlobalStats",
      "outputs": [
        {
          "internalType": "uint256",
          "name": "_totalDevices",
          "type": "uint256"
        },
        {
          "internalType": "uint256",
          "name": "_totalAuthentications",
          "type": "uint256"
        },
        {
          "internalType": "uint256",
          "name": "_activeDevices",
          "type": "uint256"
        },
        {
          "internalType": "uint256",
          "name": "_inactiveDevices",
          "type": "uint256"
        }
      ],
      "stateMutability": "view",
      "type": "function"
    },
    {
      "inputs": [
        {
          "internalType": "string",
          "name": "deviceId",
          "type": "string"
        }
      ],
      "name": "getLatestTransaction",
      "outputs": [
        {
          "components": [
            {
              "internalType": "string",
              "name": "deviceId",
              "type": "string"
            },
            {
              "internalType": "bytes",
              "name": "data",
              "type": "bytes"
            },
            {
              "internalType": "string",
              "name": "messageHash",
              "type": "string"
            },
            {
              "internalType": "uint256",
              "name": "sequence",
              "type": "uint256"
            },
            {
              "internalType": "uint256",
              "name": "timestamp",
              "type": "uint256"
            },
            {
              "internalType": "address",
              "name": "deviceAddress",
              "type": "address"
            }
          ],
          "internalType": "struct IoTDeviceManager.Transaction",
          "name": "",
          "type": "tuple"
        }
      ],
      "stateMutability": "view",
      "type": "function"
    },
    {
      "inputs": [
        {
          "internalType": "address",
          "name": "deviceAddress",
          "type": "address"
        },
        {
          "internalType": "uint256",
          "name": "limit",
          "type": "uint256"
        }
      ],
      "name": "getRecentAuthHistory",
      "outputs": [
        {
          "components": [
            {
              "internalType": "uint256",
              "name": "timestamp",
              "type": "uint256"
            },
            {
              "internalType": "bool",
              "name": "success",
              "type": "bool"
            },
            {
              "internalType": "bytes32",
              "name": "proofHash",
              "type": "bytes32"
            }
          ],
          "internalType": "struct IoTDeviceManager.AuthRecord[]",
          "name": "",
          "type": "tuple[]"
        }
      ],
      "stateMutability": "view",
      "type": "function"
    },
    {
      "inputs": [
        {
          "internalType": "string",
          "name": "deviceId",
          "type": "string"
        },
        {
          "internalType": "uint256",
          "name": "index",
          "type": "uint256"
        }
      ],
      "name": "getTransaction",
      "outputs": [
        {
          "components": [
            {
              "internalType": "string",
              "name": "deviceId",
              "type": "string"
            },
            {
              "internalType": "bytes",
              "name": "data",
              "type": "bytes"
            },
            {
              "internalType": "string",
              "name": "messageHash",
              "type": "string"
            },
            {
              "internalType": "uint256",
              "name": "sequence",
              "type": "uint256"
            },
            {
              "internalType": "uint256",
              "name": "timestamp",
              "type": "uint256"
            },
            {
              "internalType": "address",
              "name": "deviceAddress",
              "type": "address"
            }
          ],
          "internalType": "struct IoTDeviceManager.Transaction",
          "name": "",
          "type": "tuple"
        }
      ],
      "stateMutability": "view",
      "type": "function"
    },
    {
      "inputs": [
        {
          "internalType": "string",
          "name": "deviceId",
          "type": "string"
        }
      ],
      "name": "getTransactionCount",
      "outputs": [
        {
          "internalType": "uint256",
          "name": "",
          "type": "uint256"
        }
      ],
      "stateMutability": "view",
      "type": "function"
    },
    {
      "inputs": [
        {
          "internalType": "address",
          "name": "",
          "type": "address"
        }
      ],
      "name": "isDeviceListed",
      "outputs": [
        {
          "internalType": "bool",
          "name": "",
          "type": "bool"
        }
      ],
      "stateMutability": "view",
      "type": "function"
    },
    {
      "inputs": [
        {
          "internalType": "address",
          "name": "deviceAddress",
          "type": "address"
        }
      ],
      "name": "isDeviceRegistered",
      "outputs": [
        {
          "internalType": "bool",
          "name": "",
          "type": "bool"
        }
      ],
      "stateMutability": "view",
      "type": "function"
    },
    {
      "inputs": [
        {
          "internalType": "string",
          "name": "",
          "type": "string"
        }
      ],
      "name": "lastSequence",
      "outputs": [
        {
          "internalType": "uint256",
          "name": "",
          "type": "uint256"
        }
      ],
      "stateMutability": "view",
      "type": "function"
    },
    {
      "inputs": [
        {
          "internalType": "address",
          "name": "deviceAddress",
          "type": "address"
        },
        {
          "internalType": "bool",
          "name": "success",
          "type": "bool"
        },
        {
          "internalType": "bytes32",
          "name": "proofHash",
          "type": "bytes32"
        }
      ],
      "name": "recordAuthentication",
      "outputs": [],
      "stateMutability": "nonpayable",
      "type": "function"
    },
    {
      "inputs": [
        {
          "internalType": "address",
          "name": "deviceAddress",
          "type": "address"
        },
        {
          "internalType": "string",
          "name": "deviceId",
          "type": "string"
        },
        {
          "internalType": "bytes",
          "name": "data",
          "type": "bytes"
        },
        {
          "internalType": "string",
          "name": "messageHash",
          "type": "string"
        },
        {
          "internalType": "uint256",
          "name": "sequence",
          "type": "uint256"
        },
        {
          "internalType": "uint256",
          "name": "timestamp",
          "type": "uint256"
        }
      ],
      "name": "recordTransaction",
      "outputs": [
        {
          "internalType": "uint256",
          "name": "",
          "type": "uint256"
        }
      ],
      "stateMutability": "nonpayable",
      "type": "function"
    },
    {
      "inputs": [
        {
          "internalType": "bytes32",
          "name": "_hash",
          "type": "bytes32"
        },
        {
          "internalType": "bytes",
          "name": "_signature",
          "type": "bytes"
        }
      ],
      "name": "recoverSigner",
      "outputs": [
        {
          "internalType": "address",
          "name": "",
          "type": "address"
        }
      ],
      "stateMutability": "pure",
      "type": "function"
    },
    {
      "inputs": [
        {
          "internalType": "address",
          "name": "deviceAddress",
          "type": "address"
        },
        {
          "internalType": "string",
          "name": "_publicKey",
          "type": "string"
        },
        {
          "internalType": "string",
          "name": "_metadata",
          "type": "string"
        }
      ],
      "name": "registerDevice",
      "outputs": [],
      "stateMutability": "nonpayable",
      "type": "function"
    },
    {
      "inputs": [],
      "name": "totalAuthentications",
      "outputs": [
        {
          "internalType": "uint256",
          "name": "",
          "type": "uint256"
        }
      ],
      "stateMutability": "view",
      "type": "function"
    },
    {
      "inputs": [],
      "name": "totalDevices",
      "outputs": [
        {
          "internalType": "uint256",
          "name": "",
          "type": "uint256"
        }
      ],
      "stateMutability": "view",
      "type": "function"
    },
    {
      "inputs": [
        {
          "internalType": "bytes32",
          "name": "",
          "type": "bytes32"
        }
      ],
      "name": "usedSignatures",
      "outputs": [
        {
          "internalType": "bool",
          "name": "",
          "type": "bool"
        }
      ],
      "stateMutability": "view",
      "type": "function"
    }
  ],
  "bytecode": "0x608060405234801561001057600080fd5b50612d5a806100206000396000f3fe608060405234801561001057600080fd5b50600436106101f05760003560e01c806397aba7f91161010f578063d00e9fbd116100a2578063f320a66a11610071578063f320a66a14610515578063f8db1d9814610528578063f978fd611461053b578063fb3627a91461055e57600080fd5b8063d00e9fbd146104ab578063d3bde1ad146104cb578063e62dc669146104de578063e7b4cac6146104f157600080fd5b8063b879fee7116100de578063b879fee714610437578063bba1fd2d14610465578063c107863514610478578063cf65952c1461049857600080fd5b806397aba7f9146103b657806398962ad6146103c95780639f3241f3146103ee578063a17eec9f1461041757600080fd5b80635e233b55116101875780636c3a0355116101565780636c3a03551461035b5780636f6dfeb0146103635780637a2a530d14610376578063979ebb421461038b57600080fd5b80635e233b55146102d95780636121898e146102ec578063659228c9146102f55780636b4169c31461033357600080fd5b80631aea3e39116101c35780631aea3e39146102795780634387324a146102825780634869fe26146102ad5780634df97928146102d057600080fd5b80630564c34a146101f5578063127157c31461023157806312b35c1c14610246578063168d68fa14610266575b600080fd5b61021e610203366004612406565b6001600160a01b031660009081526001602052604090205490565b6040519081526020015b60405180910390f35b61024461023f366004612406565b610581565b005b6102596102543660046124c4565b6106c8565b60405161022891906125d4565b6102596102743660046125e7565b61095e565b61021e60095481565b61021e6102903660046125e7565b805160208183018101805160058252928201919093012091525481565b6102c06102bb366004612406565b610c04565b6040516102289493929190612624565b61021e600a5481565b61021e6102e73660046125e7565b610d65565b61021e60085481565b610323610303366004612406565b6001600160a01b0316600090815260208190526040902060020154151590565b6040519015158152602001610228565b61033b610d8d565b604080519485526020850193909352918301526060820152608001610228565b60065461021e565b61024461037136600461265d565b610dba565b61037e610fbd565b60405161022891906126d1565b61039e61039936600461271e565b61101f565b6040516001600160a01b039091168152602001610228565b61039e6103c4366004612737565b611049565b6103dc6103d73660046124c4565b611122565b6040516102289695949392919061277e565b61021e6103fc366004612406565b6001600160a01b031660009081526003602052604090205490565b61021e610425366004612406565b60036020526000908152604090205481565b61044a6104453660046127df565b61132d565b60408051938452911515602084015290820152606001610228565b610323610473366004612809565b611373565b61048b610486366004612856565b61168c565b60405161022891906128a4565b6102446104a6366004612406565b6119ee565b6104be6104b93660046127df565b611b5e565b6040516102289190612906565b61037e6104d9366004612961565b611d09565b61021e6104ec366004612983565b611e5b565b6105046104ff366004612406565b61206e565b604051610228959493929190612a2e565b6104be610523366004612406565b6121b9565b610244610536366004612a7a565b612289565b61032361054936600461271e565b60026020526000908152604090205460ff1681565b61032361056c366004612406565b60076020526000908152604090205460ff1681565b6001600160a01b0381166000908152602081905260408120600201548291036105c55760405162461bcd60e51b81526004016105bc90612abe565b60405180910390fd5b6001600160a01b0380831660009081526020819052604090206003015483913361010090920416146106285760405162461bcd60e51b815260206004820152600c60248201526b4e6f6e206175746f7269736560a01b60448201526064016105bc565b6001600160a01b03831660009081526020819052604090206003015460ff161561068a5760405162461bcd60e51b815260206004820152601360248201527220b83830b932b4b6103232b5309030b1ba34b360691b60448201526064016105bc565b6001600160a01b0383166000908152602081905260408120600301805460ff19166001179055600a8054916106be83612afe565b9190505550505050565b6106d06123ab565b6004836040516106e09190612b17565b90815260405190819003602001902054821061072f5760405162461bcd60e51b815260206004820152600e60248201526d496e64657820696e76616c69646560901b60448201526064016105bc565b60048360405161073f9190612b17565b9081526020016040518091039020828154811061075e5761075e612b33565b90600052602060002090600602016040518060c001604052908160008201805461078790612b49565b80601f01602080910402602001604051908101604052809291908181526020018280546107b390612b49565b80156108005780601f106107d557610100808354040283529160200191610800565b820191906000526020600020905b8154815290600101906020018083116107e357829003601f168201915b5050505050815260200160018201805461081990612b49565b80601f016020809104026020016040519081016040528092919081815260200182805461084590612b49565b80156108925780601f1061086757610100808354040283529160200191610892565b820191906000526020600020905b81548152906001019060200180831161087557829003601f168201915b505050505081526020016002820180546108ab90612b49565b80601f01602080910402602001604051908101604052809291908181526020018280546108d790612b49565b80156109245780601f106108f957610100808354040283529160200191610924565b820191906000526020600020905b81548152906001019060200180831161090757829003601f168201915b505050918352505060038201546020820152600482015460408201526005909101546001600160a01b031660609091015290505b92915050565b6109666123ab565b60006004836040516109789190612b17565b908152604051908190036020019020549050806109cc5760405162461bcd60e51b815260206004820152601260248201527120bab1bab732903a3930b739b0b1ba34b7b760711b60448201526064016105bc565b6004836040516109dc9190612b17565b9081526040519081900360200190206109f6600183612b7d565b81548110610a0657610a06612b33565b90600052602060002090600602016040518060c0016040529081600082018054610a2f90612b49565b80601f0160208091040260200160405190810160405280929190818152602001828054610a5b90612b49565b8015610aa85780601f10610a7d57610100808354040283529160200191610aa8565b820191906000526020600020905b815481529060010190602001808311610a8b57829003601f168201915b50505050508152602001600182018054610ac190612b49565b80601f0160208091040260200160405190810160405280929190818152602001828054610aed90612b49565b8015610b3a5780601f10610b0f57610100808354040283529160200191610b3a565b820191906000526020600020905b815481529060010190602001808311610b1d57829003601f168201915b50505050508152602001600282018054610b5390612b49565b80601f0160208091040260200160405190810160405280929190818152602001828054610b7f90612b49565b8015610bcc5780601f10610ba157610100808354040283529160200191610bcc565b820191906000526020600020905b815481529060010190602001808311610baf57829003601f168201915b505050918352505060038201546020820152600482015460408201526005909101546001600160a01b03166060909101529392505050565b6001600160a01b038116600090815260208190526040812060038101546002820154825460609485949093849391928392600184019260ff16918490610c4990612b49565b80601f0160208091040260200160405190810160405280929190818152602001828054610c7590612b49565b8015610cc25780601f10610c9757610100808354040283529160200191610cc2565b820191906000526020600020905b815481529060010190602001808311610ca557829003601f168201915b50505050509350828054610cd590612b49565b80601f0160208091040260200160405190810160405280929190818152602001828054610d0190612b49565b8015610d4e5780601f10610d2357610100808354040283529160200191610d4e565b820191906000526020600020905b815481529060010190602001808311610d3157829003601f168201915b505050505092509450945094509450509193509193565b6000600482604051610d779190612b17565b9081526040519081900360200190205492915050565b600080600080600854600954600a54600a54600854610dac9190612b7d565b935093509350935090919293565b6001600160a01b03831660009081526020819052604090206002015415610e235760405162461bcd60e51b815260206004820152601860248201527f417070617265696c2064656a6120656e7265676973747265000000000000000060448201526064016105bc565b6040805160a08101825283815260208082018490524282840152600160608301523360808301526001600160a01b0386166000908152908190529190912081518190610e6f9082612bdf565b5060208201516001820190610e849082612bdf565b5060408281015160028301556060830151600390920180546080909401516001600160a81b0319909416921515610100600160a81b031916929092176101006001600160a01b03948516021790915590841660009081526007602052205460ff16610f4d576006805460018082019092557ff652222313e28459528d920b65115c16c04f3efc82aaedc97be59f3f377c0d3f0180546001600160a01b0319166001600160a01b0386169081179091556000908152600760205260409020805460ff191690911790555b60088054906000610f5d83612afe565b9091555050600a8054906000610f7283612afe565b9190505550826001600160a01b03167f40ee62d3a0cf66ef791a7a1f9d6d563ec877b394b8f5c097b6238ac82a68c0e283604051610fb09190612c9f565b60405180910390a2505050565b6060600680548060200260200160405190810160405280929190818152602001828054801561101557602002820191906000526020600020905b81546001600160a01b03168152600190910190602001808311610ff7575b5050505050905090565b6006818154811061102f57600080fd5b6000918252602090912001546001600160a01b0316905081565b600081516041146110915760405162461bcd60e51b81526020600482015260126024820152715369676e617475726520696e76616c69646560701b60448201526064016105bc565b60208201516040830151606084015160001a601b8110156110ba576110b7601b82612cb2565b90505b60408051600081526020810180835288905260ff831691810191909152606081018490526080810183905260019060a0016020604051602081039080840390855afa15801561110d573d6000803e3d6000fd5b5050604051601f190151979650505050505050565b8151602081840181018051600482529282019185019190912091905280548290811061114d57600080fd5b90600052602060002090600602016000915091505080600001805461117190612b49565b80601f016020809104026020016040519081016040528092919081815260200182805461119d90612b49565b80156111ea5780601f106111bf576101008083540402835291602001916111ea565b820191906000526020600020905b8154815290600101906020018083116111cd57829003601f168201915b5050505050908060010180546111ff90612b49565b80601f016020809104026020016040519081016040528092919081815260200182805461122b90612b49565b80156112785780601f1061124d57610100808354040283529160200191611278565b820191906000526020600020905b81548152906001019060200180831161125b57829003601f168201915b50505050509080600201805461128d90612b49565b80601f01602080910402602001604051908101604052809291908181526020018280546112b990612b49565b80156113065780601f106112db57610100808354040283529160200191611306565b820191906000526020600020905b8154815290600101906020018083116112e957829003601f168201915b5050505060038301546004840154600590940154929390929091506001600160a01b031686565b6001602052816000526040600020818154811061134957600080fd5b600091825260209091206003909102018054600182015460029092015490935060ff909116915083565b6001600160a01b038316600090815260208190526040812060020154849082036113af5760405162461bcd60e51b81526004016105bc90612abe565b6001600160a01b0385166000908152602081905260409020600381015460ff1661140e5760405162461bcd60e51b815260206004820152601060248201526f20b83830b932b4b61034b730b1ba34b360811b60448201526064016105bc565b60008581526002602052604090205460ff161561146d5760405162461bcd60e51b815260206004820152601760248201527f5369676e61747572652064656a61207574696c6973656500000000000000000060448201526064016105bc565b60006114798686611049565b9050866001600160a01b0316816001600160a01b0316146114d15760405162461bcd60e51b81526020600482015260126024820152715369676e617475726520696e76616c69646560701b60448201526064016105bc565b60016002600088815260200190815260200160002060006101000a81548160ff02191690831515021790555042826002018190555060016000886001600160a01b03166001600160a01b0316815260200190815260200160002060405180606001604052804281526020016001151581526020018881525090806001815401808255809150506001900390600052602060002090600302016000909190919091506000820151816000015560208201518160010160006101000a81548160ff02191690831515021790555060408201518160020155505060036000886001600160a01b03166001600160a01b0316815260200190815260200160002060008154809291906115de90612afe565b9091555050600980549060006115f383612afe565b9190505550866001600160a01b03167f5caa76bbd236e4b7e7bd9a888c8b726858221bac425e0fa9e9f2a574c1860f864260405161163391815260200190565b60405180910390a260408051428152600160208201526001600160a01b038916917f479914d0568c4a3927420aa15b2f8838a29126342e32c563637c6a993bba692e910160405180910390a25060019695505050505050565b606060006004856040516116a09190612b17565b90815260405190819003602001902054905060008190036116f55760408051600080825260208201909252906116ec565b6116d96123ab565b8152602001906001900390816116d15790505b509150506119e7565b60006117018486612ccb565b90508181111561170e5750805b600061171a8683612b7d565b905060008167ffffffffffffffff81111561173757611737612421565b60405190808252806020026020018201604052801561177057816020015b61175d6123ab565b8152602001906001900390816117555790505b50905060005b828110156119e05760048960405161178e9190612b17565b9081526040519081900360200190206117a7828a612ccb565b815481106117b7576117b7612b33565b90600052602060002090600602016040518060c00160405290816000820180546117e090612b49565b80601f016020809104026020016040519081016040528092919081815260200182805461180c90612b49565b80156118595780601f1061182e57610100808354040283529160200191611859565b820191906000526020600020905b81548152906001019060200180831161183c57829003601f168201915b5050505050815260200160018201805461187290612b49565b80601f016020809104026020016040519081016040528092919081815260200182805461189e90612b49565b80156118eb5780601f106118c0576101008083540402835291602001916118eb565b820191906000526020600020905b8154815290600101906020018083116118ce57829003601f168201915b5050505050815260200160028201805461190490612b49565b80601f016020809104026020016040519081016040528092919081815260200182805461193090612b49565b801561197d5780601f106119525761010080835404028352916020019161197d565b820191906000526020600020905b81548152906001019060200180831161196057829003601f168201915b505050918352505060038201546020820152600482015460408201526005909101546001600160a01b031660609091015282518390839081106119c2576119c2612b33565b602002602001018190525080806119d890612afe565b915050611776565b5093505050505b9392505050565b6001600160a01b038116600090815260208190526040812060020154829103611a295760405162461bcd60e51b81526004016105bc90612abe565b6001600160a01b038083166000908152602081905260409020600301548391336101009092041614611a8c5760405162461bcd60e51b815260206004820152600c60248201526b4e6f6e206175746f7269736560a01b60448201526064016105bc565b6001600160a01b03831660009081526020819052604090206003015460ff16611aef5760405162461bcd60e51b815260206004820152601560248201527420b83830b932b4b6103232b5309034b730b1ba34b360591b60448201526064016105bc565b6001600160a01b0383166000908152602081905260408120600301805460ff19169055600a805491611b2083612cde565b90915550506040516001600160a01b038416907fca2220ee93ea32595f56c66fee84698b8ff679dad662cde58c0e54d54e5af98390600090a2505050565b6001600160a01b03821660009081526020819052604081206002015460609184919003611b9d5760405162461bcd60e51b81526004016105bc90612abe565b6001600160a01b03841660009081526001602052604081205490848211611bc5576000611bcf565b611bcf8583612b7d565b90506000611bdd8284612b7d565b905060008167ffffffffffffffff811115611bfa57611bfa612421565b604051908082528060200260200182016040528015611c4557816020015b6040805160608101825260008082526020808301829052928201528252600019909201910181611c185790505b50905060005b82811015611cfd576001600160a01b0389166000908152600160205260409020611c758286612ccb565b81548110611c8557611c85612b33565b9060005260206000209060030201604051806060016040529081600082015481526020016001820160009054906101000a900460ff16151515158152602001600282015481525050828281518110611cdf57611cdf612b33565b60200260200101819052508080611cf590612afe565b915050611c4b565b50979650505050505050565b6006546060908310611d5d5760405162461bcd60e51b815260206004820152601960248201527f537461727420696e646578206f7574206f6620626f756e64730000000000000060448201526064016105bc565b6000611d698385612ccb565b600654909150811115611d7b57506006545b6000611d878583612b7d565b905060008167ffffffffffffffff811115611da457611da4612421565b604051908082528060200260200182016040528015611dcd578160200160208202803683370190505b50905060005b82811015611e51576006611de78289612ccb565b81548110611df757611df7612b33565b9060005260206000200160009054906101000a90046001600160a01b0316828281518110611e2757611e27612b33565b6001600160a01b039092166020928302919091019091015280611e4981612afe565b915050611dd3565b5095945050505050565b6001600160a01b03861660009081526020819052604081206002015487908203611e975760405162461bcd60e51b81526004016105bc90612abe565b600587604051611ea79190612b17565b9081526020016040518091039020548411611ef85760405162461bcd60e51b815260206004820152601160248201527053657175656e636520696e76616c69646560781b60448201526064016105bc565b600487604051611f089190612b17565b90815260408051918290036020908101832060c0840183528a84528382018a905291830188905260608301879052608083018690526001600160a01b038b1660a08401528154600181018355600092835291208251600690920201908190611f709082612bdf565b5060208201516001820190611f859082612bdf565b5060408201516002820190611f9a9082612bdf565b50606082015160038201556080820151600482015560a090910151600591820180546001600160a01b0319166001600160a01b03909216919091179055604051859190611fe8908a90612b17565b908152602001604051809103902081905550876001600160a01b03167f8aebf80de26fd1cfce16f5e9a05341326492e77136df3565d8da753e57ce1f04888686436040516120399493929190612cf5565b60405180910390a26004876040516120519190612b17565b908152604051908190036020019020549150509695505050505050565b60006020819052908152604090208054819061208990612b49565b80601f01602080910402602001604051908101604052809291908181526020018280546120b590612b49565b80156121025780601f106120d757610100808354040283529160200191612102565b820191906000526020600020905b8154815290600101906020018083116120e557829003601f168201915b50505050509080600101805461211790612b49565b80601f016020809104026020016040519081016040528092919081815260200182805461214390612b49565b80156121905780601f1061216557610100808354040283529160200191612190565b820191906000526020600020905b81548152906001019060200180831161217357829003601f168201915b50505050600283015460039093015491929160ff8116915061010090046001600160a01b031685565b6001600160a01b038116600090815260208190526040812060020154606091839190036121f85760405162461bcd60e51b81526004016105bc90612abe565b6001600160a01b038316600090815260016020908152604080832080548251818502810185019093528083529193909284015b8282101561227c57600084815260209081902060408051606081018252600386029092018054835260018082015460ff1615158486015260029091015491830191909152908352909201910161222b565b5050505091505b50919050565b6001600160a01b0383166000908152602081905260408120600201548491036122c45760405162461bcd60e51b81526004016105bc90612abe565b6001600160a01b038416600081815260016020818152604080842081516060810183524281528915158185019081528184018a815283548088018555938852858820925160039485029093019283559051958201805460ff19169615159690961790955593516002909401939093559383525290812080549161234683612afe565b90915550506009805490600061235b83612afe565b90915550506040805142815284151560208201526001600160a01b038616917f479914d0568c4a3927420aa15b2f8838a29126342e32c563637c6a993bba692e910160405180910390a250505050565b6040518060c00160405280606081526020016060815260200160608152602001600081526020016000815260200160006001600160a01b031681525090565b80356001600160a01b038116811461240157600080fd5b919050565b60006020828403121561241857600080fd5b6119e7826123ea565b634e487b7160e01b600052604160045260246000fd5b600082601f83011261244857600080fd5b813567ffffffffffffffff8082111561246357612463612421565b604051601f8301601f19908116603f0116810190828211818310171561248b5761248b612421565b816040528381528660208588010111156124a457600080fd5b836020870160208301376000602085830101528094505050505092915050565b600080604083850312156124d757600080fd5b823567ffffffffffffffff8111156124ee57600080fd5b6124fa85828601612437565b95602094909401359450505050565b60005b8381101561252457818101518382015260200161250c565b50506000910152565b60008151808452612545816020860160208601612509565b601f01601f19169290920160200192915050565b6000815160c0845261256e60c085018261252d565b905060208301518482036020860152612587828261252d565b915050604083015184820360408601526125a1828261252d565b606085810151908701526080808601519087015260a0948501516001600160a01b03169490950193909352509192915050565b6020815260006119e76020830184612559565b6000602082840312156125f957600080fd5b813567ffffffffffffffff81111561261057600080fd5b61261c84828501612437565b949350505050565b608081526000612637608083018761252d565b8281036020840152612649818761252d565b941515604084015250506060015292915050565b60008060006060848603121561267257600080fd5b61267b846123ea565b9250602084013567ffffffffffffffff8082111561269857600080fd5b6126a487838801612437565b935060408601359150808211156126ba57600080fd5b506126c786828701612437565b9150509250925092565b6020808252825182820181905260009190848201906040850190845b818110156127125783516001600160a01b0316835292840192918401916001016126ed565b50909695505050505050565b60006020828403121561273057600080fd5b5035919050565b6000806040838503121561274a57600080fd5b82359150602083013567ffffffffffffffff81111561276857600080fd5b61277485828601612437565b9150509250929050565b60c08152600061279160c083018961252d565b82810360208401526127a3818961252d565b905082810360408401526127b7818861252d565b6060840196909652505060808101929092526001600160a01b031660a0909101529392505050565b600080604083850312156127f257600080fd5b6127fb836123ea565b946020939093013593505050565b60008060006060848603121561281e57600080fd5b612827846123ea565b925060208401359150604084013567ffffffffffffffff81111561284a57600080fd5b6126c786828701612437565b60008060006060848603121561286b57600080fd5b833567ffffffffffffffff81111561288257600080fd5b61288e86828701612437565b9660208601359650604090950135949350505050565b6000602080830181845280855180835260408601915060408160051b870101925083870160005b828110156128f957603f198886030184526128e7858351612559565b945092850192908501906001016128cb565b5092979650505050505050565b602080825282518282018190526000919060409081850190868401855b8281101561295457815180518552868101511515878601528501518585015260609093019290850190600101612923565b5091979650505050505050565b6000806040838503121561297457600080fd5b50508035926020909101359150565b60008060008060008060c0878903121561299c57600080fd5b6129a5876123ea565b9550602087013567ffffffffffffffff808211156129c257600080fd5b6129ce8a838b01612437565b965060408901359150808211156129e457600080fd5b6129f08a838b01612437565b95506060890135915080821115612a0657600080fd5b50612a1389828a01612437565b9350506080870135915060a087013590509295509295509295565b60a081526000612a4160a083018861252d565b8281036020840152612a53818861252d565b6040840196909652505091151560608301526001600160a01b031660809091015292915050565b600080600060608486031215612a8f57600080fd5b612a98846123ea565b925060208401358015158114612aad57600080fd5b929592945050506040919091013590565b60208082526010908201526f417070617265696c20696e636f6e6e7560801b604082015260600190565b634e487b7160e01b600052601160045260246000fd5b600060018201612b1057612b10612ae8565b5060010190565b60008251612b29818460208701612509565b9190910192915050565b634e487b7160e01b600052603260045260246000fd5b600181811c90821680612b5d57607f821691505b60208210810361228357634e487b7160e01b600052602260045260246000fd5b8181038181111561095857610958612ae8565b601f821115612bda57600081815260208120601f850160051c81016020861015612bb75750805b601f850160051c820191505b81811015612bd657828155600101612bc3565b5050505b505050565b815167ffffffffffffffff811115612bf957612bf9612421565b612c0d81612c078454612b49565b84612b90565b602080601f831160018114612c425760008415612c2a5750858301515b600019600386901b1c1916600185901b178555612bd6565b600085815260208120601f198616915b82811015612c7157888601518255948401946001909101908401612c52565b5085821015612c8f5787850151600019600388901b60f8161c191681555b5050505050600190811b01905550565b6020815260006119e7602083018461252d565b60ff818116838216019081111561095857610958612ae8565b8082018082111561095857610958612ae8565b600081612ced57612ced612ae8565b506000190190565b608081526000612d08608083018761252d565b602083019590955250604081019290925260609091015291905056fea264697066735822122080870d1ff938b2eccea478c8506b4797b0d49b11b9f51b1bfd45e419e9cdac0164736f6c63430008130033",
  "linkReferences": {},
  "deployedLinkReferences": {}
}